{"abi":[{"type":"constructor","inputs":[{"name":"_denomination","type":"uint256","internalType":"uint256"},{"name":"_ivcVerifier","type":"address","internalType":"address"},{"name":"_withdrawVerifier","type":"address","internalType":"address"}],"stateMutability":"nonpayable"},{"type":"function","name":"denomination","inputs":[],"outputs":[{"name":"","type":"uint256","internalType":"uint256"}],"stateMutability":"view"},{"type":"function","name":"deposit","inputs":[{"name":"commitment","type":"bytes32","internalType":"bytes32"}],"outputs":[],"stateMutability":"payable"},{"type":"function","name":"hashChainRoot","inputs":[],"outputs":[{"name":"","type":"bytes32","internalType":"bytes32"}],"stateMutability":"view"},{"type":"function","name":"ivcVerifier","inputs":[],"outputs":[{"name":"","type":"address","internalType":"contract IIVCVerifier"}],"stateMutability":"view"},{"type":"function","name":"nullified","inputs":[{"name":"","type":"bytes32","internalType":"bytes32"}],"outputs":[{"name":"","type":"bool","internalType":"bool"}],"stateMutability":"view"},{"type":"function","name":"setCheckpoint","inputs":[{"name":"proofIVC","type":"bytes","internalType":"bytes"},{"name":"hashChainRoot_","type":"bytes32","internalType":"bytes32"},{"name":"virtualMerkleRoot","type":"bytes32","internalType":"bytes32"}],"outputs":[],"stateMutability":"nonpayable"},{"type":"function","name":"validCheckpoint","inputs":[{"name":"","type":"bytes32","internalType":"bytes32"}],"outputs":[{"name":"","type":"bool","internalType":"bool"}],"stateMutability":"view"},{"type":"function","name":"withdraw","inputs":[{"name":"proof_W","type":"bytes","internalType":"bytes"},{"name":"nullifier","type":"bytes32","internalType":"bytes32"},{"name":"virtualMerkleRoot","type":"bytes32","internalType":"bytes32"},{"name":"recipient","type":"address","internalType":"address payable"}],"outputs":[],"stateMutability":"nonpayable"},{"type":"function","name":"withdrawVerifier","inputs":[],"outputs":[{"name":"","type":"address","internalType":"contract IWithdrawVerifier"}],"stateMutability":"view"},{"type":"event","name":"Checkpoint","inputs":[{"name":"hashChainRoot","type":"bytes32","indexed":true,"internalType":"bytes32"},{"name":"virtualMerkleRoot","type":"bytes32","indexed":true,"internalType":"bytes32"}],"anonymous":false},{"type":"event","name":"Deposit","inputs":[{"name":"commitment","type":"bytes32","indexed":true,"internalType":"bytes32"}],"anonymous":false},{"type":"event","name":"Withdraw","inputs":[{"name":"nullifier","type":"bytes32","indexed":true,"internalType":"bytes32"},{"name":"to","type":"address","indexed":true,"internalType":"address"}],"anonymous":false},{"type":"error","name":"InvalidCommitment","inputs":[]},{"type":"error","name":"InvalidProof","inputs":[]},{"type":"error","name":"InvalidValue","inputs":[]},{"type":"error","name":"NullifierUsed","inputs":[]},{"type":"error","name":"StaleOld","inputs":[]},{"type":"error","name":"UnknownCheckpoint","inputs":[]}],"bytecode":{"object":"0x60e06040526001600355348015610014575f5ffd5b506040516112bd3803806112bd833981810160405281019061003691906101e6565b5f73ffffffffffffffffffffffffffffffffffffffff168273ffffffffffffffffffffffffffffffffffffffff161415801561009e57505f73ffffffffffffffffffffffffffffffffffffffff168173ffffffffffffffffffffffffffffffffffffffff1614155b6100dd576040517f08c379a00000000000000000000000000000000000000000000000000000000081526004016100d490610290565b60405180910390fd5b82608081815250508173ffffffffffffffffffffffffffffffffffffffff1660a08173ffffffffffffffffffffffffffffffffffffffff16815250508073ffffffffffffffffffffffffffffffffffffffff1660c08173ffffffffffffffffffffffffffffffffffffffff16815250505050506102ae565b5f5ffd5b5f819050919050565b61016b81610159565b8114610175575f5ffd5b50565b5f8151905061018681610162565b92915050565b5f73ffffffffffffffffffffffffffffffffffffffff82169050919050565b5f6101b58261018c565b9050919050565b6101c5816101ab565b81146101cf575f5ffd5b50565b5f815190506101e0816101bc565b92915050565b5f5f5f606084860312156101fd576101fc610155565b5b5f61020a86828701610178565b935050602061021b868287016101d2565b925050604061022c868287016101d2565b9150509250925092565b5f82825260208201905092915050565b7f4241445f564552494649455200000000000000000000000000000000000000005f82015250565b5f61027a600c83610236565b915061028582610246565b602082019050919050565b5f6020820190508181035f8301526102a78161026e565b9050919050565b60805160a05160c051610fc96102f45f395f818161021c01526104f001525f818161029f01526103d501525f81816102400152818161060a015261074a0152610fc95ff3fe608060405260043610610085575f3560e01c8063a586592711610058578063a58659271461012f578063b130eaa614610159578063b214faa514610181578063e73bdb5e1461019d578063f79ff103146101d957610085565b80634ebd55e714610089578063864eb164146100b35780638bca6d16146100dd5780639a11a8d014610107575b5f5ffd5b348015610094575f5ffd5b5061009d610215565b6040516100aa919061089e565b60405180910390f35b3480156100be575f5ffd5b506100c761021a565b6040516100d49190610931565b60405180910390f35b3480156100e8575f5ffd5b506100f161023e565b6040516100fe9190610962565b60405180910390f35b348015610112575f5ffd5b5061012d60048036038101906101289190610a0e565b610262565b005b34801561013a575f5ffd5b506101436103d3565b6040516101509190610a9f565b60405180910390f35b348015610164575f5ffd5b5061017f600480360381019061017a9190610af3565b6103f7565b005b61019b60048036038101906101969190610b77565b61070d565b005b3480156101a8575f5ffd5b506101c360048036038101906101be9190610b77565b61084c565b6040516101d09190610bbc565b60405180910390f35b3480156101e4575f5ffd5b506101ff60048036038101906101fa9190610b77565b610869565b60405161020c9190610bbc565b60405180910390f35b5f5481565b7f000000000000000000000000000000000000000000000000000000000000000081565b7f000000000000000000000000000000000000000000000000000000000000000081565b815f541461029c576040517fb909e30700000000000000000000000000000000000000000000000000000000815260040160405180910390fd5b5f7f000000000000000000000000000000000000000000000000000000000000000073ffffffffffffffffffffffffffffffffffffffff1663ab750e7586865f54866040518563ffffffff1660e01b81526004016102fd9493929190610c2f565b602060405180830381865afa158015610318573d5f5f3e3d5ffd5b505050506040513d601f19601f8201168201806040525081019061033c9190610c97565b905080610375576040517f09bde33900000000000000000000000000000000000000000000000000000000815260040160405180910390fd5b6001805f8481526020019081526020015f205f6101000a81548160ff021916908315150217905550815f547fb481e80a283d84185d8dd60c1e092608445351b4e26af530b2910ef8ae8915f060405160405180910390a35050505050565b7f000000000000000000000000000000000000000000000000000000000000000081565b60026003540361043c576040517f08c379a000000000000000000000000000000000000000000000000000000000815260040161043390610d1c565b60405180910390fd5b600260038190555060015f8381526020019081526020015f205f9054906101000a900460ff16610498576040517f8f21ef3400000000000000000000000000000000000000000000000000000000815260040160405180910390fd5b60025f8481526020019081526020015f205f9054906101000a900460ff16156104ed576040517f9281498500000000000000000000000000000000000000000000000000000000815260040160405180910390fd5b5f7f000000000000000000000000000000000000000000000000000000000000000073ffffffffffffffffffffffffffffffffffffffff16631321b98887878688876040518663ffffffff1660e01b815260040161054f959493929190610d5a565b602060405180830381865afa15801561056a573d5f5f3e3d5ffd5b505050506040513d601f19601f8201168201806040525081019061058e9190610c97565b9050806105c7576040517f09bde33900000000000000000000000000000000000000000000000000000000815260040160405180910390fd5b600160025f8681526020019081526020015f205f6101000a81548160ff0219169083151502179055505f8273ffffffffffffffffffffffffffffffffffffffff167f000000000000000000000000000000000000000000000000000000000000000060405161063590610dd3565b5f6040518083038185875af1925050503d805f811461066f576040519150601f19603f3d011682016040523d82523d5f602084013e610674565b606091505b50509050806106b8576040517f08c379a00000000000000000000000000000000000000000000000000000000081526004016106af90610e31565b60405180910390fd5b8273ffffffffffffffffffffffffffffffffffffffff16857f0448f4c3f7e202963aee589c062ccd162bcad2d1e20f233e7092cf77dacc61df60405160405180910390a3505060016003819055505050505050565b5f5f1b8103610748576040517fc06789fa00000000000000000000000000000000000000000000000000000000815260040160405180910390fd5b7f000000000000000000000000000000000000000000000000000000000000000034146107a1576040517faa7feadc00000000000000000000000000000000000000000000000000000000815260040160405180910390fd5b6002600160f81b5f54836040516020016107bd93929190610eba565b6040516020818303038152906040526040516107d99190610f3e565b602060405180830381855afa1580156107f4573d5f5f3e3d5ffd5b5050506040513d601f19601f820116820180604052508101906108179190610f68565b5f81905550807f743d3067919fbf32a17803b5c0a9dd39d48691e1376031b691cc173f593b093360405160405180910390a250565b6002602052805f5260405f205f915054906101000a900460ff1681565b6001602052805f5260405f205f915054906101000a900460ff1681565b5f819050919050565b61089881610886565b82525050565b5f6020820190506108b15f83018461088f565b92915050565b5f73ffffffffffffffffffffffffffffffffffffffff82169050919050565b5f819050919050565b5f6108f96108f46108ef846108b7565b6108d6565b6108b7565b9050919050565b5f61090a826108df565b9050919050565b5f61091b82610900565b9050919050565b61092b81610911565b82525050565b5f6020820190506109445f830184610922565b92915050565b5f819050919050565b61095c8161094a565b82525050565b5f6020820190506109755f830184610953565b92915050565b5f5ffd5b5f5ffd5b5f5ffd5b5f5ffd5b5f5ffd5b5f5f83601f8401126109a4576109a3610983565b5b8235905067ffffffffffffffff8111156109c1576109c0610987565b5b6020830191508360018202830111156109dd576109dc61098b565b5b9250929050565b6109ed81610886565b81146109f7575f5ffd5b50565b5f81359050610a08816109e4565b92915050565b5f5f5f5f60608587031215610a2657610a2561097b565b5b5f85013567ffffffffffffffff811115610a4357610a4261097f565b5b610a4f8782880161098f565b94509450506020610a62878288016109fa565b9250506040610a73878288016109fa565b91505092959194509250565b5f610a8982610900565b9050919050565b610a9981610a7f565b82525050565b5f602082019050610ab25f830184610a90565b92915050565b5f610ac2826108b7565b9050919050565b610ad281610ab8565b8114610adc575f5ffd5b50565b5f81359050610aed81610ac9565b92915050565b5f5f5f5f5f60808688031215610b0c57610b0b61097b565b5b5f86013567ffffffffffffffff811115610b2957610b2861097f565b5b610b358882890161098f565b95509550506020610b48888289016109fa565b9350506040610b59888289016109fa565b9250506060610b6a88828901610adf565b9150509295509295909350565b5f60208284031215610b8c57610b8b61097b565b5b5f610b99848285016109fa565b91505092915050565b5f8115159050919050565b610bb681610ba2565b82525050565b5f602082019050610bcf5f830184610bad565b92915050565b5f82825260208201905092915050565b828183375f83830152505050565b5f601f19601f8301169050919050565b5f610c0e8385610bd5565b9350610c1b838584610be5565b610c2483610bf3565b840190509392505050565b5f6060820190508181035f830152610c48818688610c03565b9050610c57602083018561088f565b610c64604083018461088f565b95945050505050565b610c7681610ba2565b8114610c80575f5ffd5b50565b5f81519050610c9181610c6d565b92915050565b5f60208284031215610cac57610cab61097b565b5b5f610cb984828501610c83565b91505092915050565b5f82825260208201905092915050565b7f5245454e5452414e4359000000000000000000000000000000000000000000005f82015250565b5f610d06600a83610cc2565b9150610d1182610cd2565b602082019050919050565b5f6020820190508181035f830152610d3381610cfa565b9050919050565b5f610d4482610900565b9050919050565b610d5481610d3a565b82525050565b5f6080820190508181035f830152610d73818789610c03565b9050610d82602083018661088f565b610d8f604083018561088f565b610d9c6060830184610d4b565b9695505050505050565b5f81905092915050565b50565b5f610dbe5f83610da6565b9150610dc982610db0565b5f82019050919050565b5f610ddd82610db3565b9150819050919050565b7f5452414e534645525f4641494c000000000000000000000000000000000000005f82015250565b5f610e1b600d83610cc2565b9150610e2682610de7565b602082019050919050565b5f6020820190508181035f830152610e4881610e0f565b9050919050565b5f7fff0000000000000000000000000000000000000000000000000000000000000082169050919050565b5f819050919050565b610e94610e8f82610e4f565b610e7a565b82525050565b5f819050919050565b610eb4610eaf82610886565b610e9a565b82525050565b5f610ec58286610e83565b600182019150610ed58285610ea3565b602082019150610ee58284610ea3565b602082019150819050949350505050565b5f81519050919050565b8281835e5f83830152505050565b5f610f1882610ef6565b610f228185610da6565b9350610f32818560208601610f00565b80840191505092915050565b5f610f498284610f0e565b915081905092915050565b5f81519050610f62816109e4565b92915050565b5f60208284031215610f7d57610f7c61097b565b5b5f610f8a84828501610f54565b9150509291505056fea26469706673582212204e425229cc0303577887883ab7b99bf9f5dca188f9ecbbf97f19571960e2a39a64736f6c634300081b0033","linkReferences":{}},"methodIdentifiers":{"denomination()":"8bca6d16","deposit(bytes32)":"b214faa5","hashChainRoot()":"4ebd55e7","ivcVerifier()":"a5865927","nullified(bytes32)":"e73bdb5e","setCheckpoint(bytes,bytes32,bytes32)":"9a11a8d0","validCheckpoint(bytes32)":"f79ff103","withdraw(bytes,bytes32,bytes32,address)":"b130eaa6","withdrawVerifier()":"864eb164"},"id":0}