{"abi":[{"type":"constructor","inputs":[{"name":"_denomination","type":"uint256","internalType":"uint256"},{"name":"_ivcVerifier","type":"address","internalType":"address"},{"name":"_withdrawVerifier","type":"address","internalType":"address"}],"stateMutability":"nonpayable"},{"type":"function","name":"denomination","inputs":[],"outputs":[{"name":"","type":"uint256","internalType":"uint256"}],"stateMutability":"view"},{"type":"function","name":"deposit","inputs":[{"name":"commitment","type":"bytes32","internalType":"bytes32"}],"outputs":[],"stateMutability":"payable"},{"type":"function","name":"hashChainRoot","inputs":[],"outputs":[{"name":"","type":"bytes32","internalType":"bytes32"}],"stateMutability":"view"},{"type":"function","name":"ivcVerifier","inputs":[],"outputs":[{"name":"","type":"address","internalType":"contract IIVCVerifier"}],"stateMutability":"view"},{"type":"function","name":"nextIndex","inputs":[],"outputs":[{"name":"","type":"uint256","internalType":"uint256"}],"stateMutability":"view"},{"type":"function","name":"nullified","inputs":[{"name":"","type":"bytes32","internalType":"bytes32"}],"outputs":[{"name":"","type":"bool","internalType":"bool"}],"stateMutability":"view"},{"type":"function","name":"setCheckpoint","inputs":[{"name":"proofIVC","type":"bytes","internalType":"bytes"},{"name":"hashChainRoot_","type":"bytes32","internalType":"bytes32"},{"name":"virtualMerkleRoot","type":"bytes32","internalType":"bytes32"}],"outputs":[],"stateMutability":"nonpayable"},{"type":"function","name":"validCheckpoint","inputs":[{"name":"","type":"bytes32","internalType":"bytes32"}],"outputs":[{"name":"","type":"bool","internalType":"bool"}],"stateMutability":"view"},{"type":"function","name":"withdraw","inputs":[{"name":"proof_W","type":"bytes","internalType":"bytes"},{"name":"nullifierHash","type":"bytes32","internalType":"bytes32"},{"name":"virtualMerkleRoot","type":"bytes32","internalType":"bytes32"},{"name":"recipient","type":"address","internalType":"address payable"}],"outputs":[],"stateMutability":"nonpayable"},{"type":"function","name":"withdrawVerifier","inputs":[],"outputs":[{"name":"","type":"address","internalType":"contract IWithdrawVerifier"}],"stateMutability":"view"},{"type":"event","name":"Checkpoint","inputs":[{"name":"hashChainRoot","type":"bytes32","indexed":true,"internalType":"bytes32"},{"name":"virtualMerkleRoot","type":"bytes32","indexed":true,"internalType":"bytes32"}],"anonymous":false},{"type":"event","name":"Deposit","inputs":[{"name":"commitment","type":"bytes32","indexed":true,"internalType":"bytes32"},{"name":"index","type":"uint256","indexed":false,"internalType":"uint256"}],"anonymous":false},{"type":"event","name":"Withdraw","inputs":[{"name":"nullifierHash","type":"bytes32","indexed":true,"internalType":"bytes32"},{"name":"to","type":"address","indexed":true,"internalType":"address"}],"anonymous":false},{"type":"error","name":"InvalidCommitment","inputs":[]},{"type":"error","name":"InvalidProof","inputs":[]},{"type":"error","name":"InvalidValue","inputs":[]},{"type":"error","name":"NullifierUsed","inputs":[]},{"type":"error","name":"StaleOld","inputs":[]},{"type":"error","name":"UnknownCheckpoint","inputs":[]}],"bytecode":{"object":"0x60e06040526001600455348015610014575f5ffd5b50604051611314380380611314833981810160405281019061003691906101e6565b5f73ffffffffffffffffffffffffffffffffffffffff168273ffffffffffffffffffffffffffffffffffffffff161415801561009e57505f73ffffffffffffffffffffffffffffffffffffffff168173ffffffffffffffffffffffffffffffffffffffff1614155b6100dd576040517f08c379a00000000000000000000000000000000000000000000000000000000081526004016100d490610290565b60405180910390fd5b82608081815250508173ffffffffffffffffffffffffffffffffffffffff1660a08173ffffffffffffffffffffffffffffffffffffffff16815250508073ffffffffffffffffffffffffffffffffffffffff1660c08173ffffffffffffffffffffffffffffffffffffffff16815250505050506102ae565b5f5ffd5b5f819050919050565b61016b81610159565b8114610175575f5ffd5b50565b5f8151905061018681610162565b92915050565b5f73ffffffffffffffffffffffffffffffffffffffff82169050919050565b5f6101b58261018c565b9050919050565b6101c5816101ab565b81146101cf575f5ffd5b50565b5f815190506101e0816101bc565b92915050565b5f5f5f606084860312156101fd576101fc610155565b5b5f61020a86828701610178565b935050602061021b868287016101d2565b925050604061022c868287016101d2565b9150509250925092565b5f82825260208201905092915050565b7f4241445f564552494649455200000000000000000000000000000000000000005f82015250565b5f61027a600c83610236565b915061028582610246565b602082019050919050565b5f6020820190508181035f8301526102a78161026e565b9050919050565b60805160a05160c0516110206102f45f395f8181610251015261052501525f81816102d4015261040a01525f81816102750152818161063f015261077f01526110205ff3fe608060405260043610610090575f3560e01c8063b130eaa611610058578063b130eaa614610164578063b214faa51461018c578063e73bdb5e146101a8578063f79ff103146101e4578063fc7e9c6f1461022057610090565b80634ebd55e714610094578063864eb164146100be5780638bca6d16146100e85780639a11a8d014610112578063a58659271461013a575b5f5ffd5b34801561009f575f5ffd5b506100a861024a565b6040516100b591906108f5565b60405180910390f35b3480156100c9575f5ffd5b506100d261024f565b6040516100df9190610988565b60405180910390f35b3480156100f3575f5ffd5b506100fc610273565b60405161010991906109b9565b60405180910390f35b34801561011d575f5ffd5b5061013860048036038101906101339190610a65565b610297565b005b348015610145575f5ffd5b5061014e610408565b60405161015b9190610af6565b60405180910390f35b34801561016f575f5ffd5b5061018a60048036038101906101859190610b4a565b61042c565b005b6101a660048036038101906101a19190610bce565b610742565b005b3480156101b3575f5ffd5b506101ce60048036038101906101c99190610bce565b61089d565b6040516101db9190610c13565b60405180910390f35b3480156101ef575f5ffd5b5061020a60048036038101906102059190610bce565b6108ba565b6040516102179190610c13565b60405180910390f35b34801561022b575f5ffd5b506102346108d7565b60405161024191906109b9565b60405180910390f35b5f5481565b7f000000000000000000000000000000000000000000000000000000000000000081565b7f000000000000000000000000000000000000000000000000000000000000000081565b815f54146102d1576040517fb909e30700000000000000000000000000000000000000000000000000000000815260040160405180910390fd5b5f7f000000000000000000000000000000000000000000000000000000000000000073ffffffffffffffffffffffffffffffffffffffff1663ab750e7586865f54866040518563ffffffff1660e01b81526004016103329493929190610c86565b602060405180830381865afa15801561034d573d5f5f3e3d5ffd5b505050506040513d601f19601f820116820180604052508101906103719190610cee565b9050806103aa576040517f09bde33900000000000000000000000000000000000000000000000000000000815260040160405180910390fd5b6001805f8481526020019081526020015f205f6101000a81548160ff021916908315150217905550815f547fb481e80a283d84185d8dd60c1e092608445351b4e26af530b2910ef8ae8915f060405160405180910390a35050505050565b7f000000000000000000000000000000000000000000000000000000000000000081565b600260045403610471576040517f08c379a000000000000000000000000000000000000000000000000000000000815260040161046890610d73565b60405180910390fd5b600260048190555060015f8381526020019081526020015f205f9054906101000a900460ff166104cd576040517f8f21ef3400000000000000000000000000000000000000000000000000000000815260040160405180910390fd5b60025f8481526020019081526020015f205f9054906101000a900460ff1615610522576040517f9281498500000000000000000000000000000000000000000000000000000000815260040160405180910390fd5b5f7f000000000000000000000000000000000000000000000000000000000000000073ffffffffffffffffffffffffffffffffffffffff16631321b98887878688876040518663ffffffff1660e01b8152600401610584959493929190610db1565b602060405180830381865afa15801561059f573d5f5f3e3d5ffd5b505050506040513d601f19601f820116820180604052508101906105c39190610cee565b9050806105fc576040517f09bde33900000000000000000000000000000000000000000000000000000000815260040160405180910390fd5b600160025f8681526020019081526020015f205f6101000a81548160ff0219169083151502179055505f8273ffffffffffffffffffffffffffffffffffffffff167f000000000000000000000000000000000000000000000000000000000000000060405161066a90610e2a565b5f6040518083038185875af1925050503d805f81146106a4576040519150601f19603f3d011682016040523d82523d5f602084013e6106a9565b606091505b50509050806106ed576040517f08c379a00000000000000000000000000000000000000000000000000000000081526004016106e490610e88565b60405180910390fd5b8273ffffffffffffffffffffffffffffffffffffffff16857f0448f4c3f7e202963aee589c062ccd162bcad2d1e20f233e7092cf77dacc61df60405160405180910390a3505060016004819055505050505050565b5f5f1b810361077d576040517fc06789fa00000000000000000000000000000000000000000000000000000000815260040160405180910390fd5b7f000000000000000000000000000000000000000000000000000000000000000034146107d6576040517faa7feadc00000000000000000000000000000000000000000000000000000000815260040160405180910390fd5b5f6003549050600181016003819055506002600160f81b5f548460405160200161080293929190610f11565b60405160208183030381529060405260405161081e9190610f95565b602060405180830381855afa158015610839573d5f5f3e3d5ffd5b5050506040513d601f19601f8201168201806040525081019061085c9190610fbf565b5f81905550817f98e783c3864bbf744a057ef605a2a61701c3b62b5ed68b3745b99094497daf1f8260405161089191906109b9565b60405180910390a25050565b6002602052805f5260405f205f915054906101000a900460ff1681565b6001602052805f5260405f205f915054906101000a900460ff1681565b60035481565b5f819050919050565b6108ef816108dd565b82525050565b5f6020820190506109085f8301846108e6565b92915050565b5f73ffffffffffffffffffffffffffffffffffffffff82169050919050565b5f819050919050565b5f61095061094b6109468461090e565b61092d565b61090e565b9050919050565b5f61096182610936565b9050919050565b5f61097282610957565b9050919050565b61098281610968565b82525050565b5f60208201905061099b5f830184610979565b92915050565b5f819050919050565b6109b3816109a1565b82525050565b5f6020820190506109cc5f8301846109aa565b92915050565b5f5ffd5b5f5ffd5b5f5ffd5b5f5ffd5b5f5ffd5b5f5f83601f8401126109fb576109fa6109da565b5b8235905067ffffffffffffffff811115610a1857610a176109de565b5b602083019150836001820283011115610a3457610a336109e2565b5b9250929050565b610a44816108dd565b8114610a4e575f5ffd5b50565b5f81359050610a5f81610a3b565b92915050565b5f5f5f5f60608587031215610a7d57610a7c6109d2565b5b5f85013567ffffffffffffffff811115610a9a57610a996109d6565b5b610aa6878288016109e6565b94509450506020610ab987828801610a51565b9250506040610aca87828801610a51565b91505092959194509250565b5f610ae082610957565b9050919050565b610af081610ad6565b82525050565b5f602082019050610b095f830184610ae7565b92915050565b5f610b198261090e565b9050919050565b610b2981610b0f565b8114610b33575f5ffd5b50565b5f81359050610b4481610b20565b92915050565b5f5f5f5f5f60808688031215610b6357610b626109d2565b5b5f86013567ffffffffffffffff811115610b8057610b7f6109d6565b5b610b8c888289016109e6565b95509550506020610b9f88828901610a51565b9350506040610bb088828901610a51565b9250506060610bc188828901610b36565b9150509295509295909350565b5f60208284031215610be357610be26109d2565b5b5f610bf084828501610a51565b91505092915050565b5f8115159050919050565b610c0d81610bf9565b82525050565b5f602082019050610c265f830184610c04565b92915050565b5f82825260208201905092915050565b828183375f83830152505050565b5f601f19601f8301169050919050565b5f610c658385610c2c565b9350610c72838584610c3c565b610c7b83610c4a565b840190509392505050565b5f6060820190508181035f830152610c9f818688610c5a565b9050610cae60208301856108e6565b610cbb60408301846108e6565b95945050505050565b610ccd81610bf9565b8114610cd7575f5ffd5b50565b5f81519050610ce881610cc4565b92915050565b5f60208284031215610d0357610d026109d2565b5b5f610d1084828501610cda565b91505092915050565b5f82825260208201905092915050565b7f5245454e5452414e4359000000000000000000000000000000000000000000005f82015250565b5f610d5d600a83610d19565b9150610d6882610d29565b602082019050919050565b5f6020820190508181035f830152610d8a81610d51565b9050919050565b5f610d9b82610957565b9050919050565b610dab81610d91565b82525050565b5f6080820190508181035f830152610dca818789610c5a565b9050610dd960208301866108e6565b610de660408301856108e6565b610df36060830184610da2565b9695505050505050565b5f81905092915050565b50565b5f610e155f83610dfd565b9150610e2082610e07565b5f82019050919050565b5f610e3482610e0a565b9150819050919050565b7f5452414e534645525f4641494c000000000000000000000000000000000000005f82015250565b5f610e72600d83610d19565b9150610e7d82610e3e565b602082019050919050565b5f6020820190508181035f830152610e9f81610e66565b9050919050565b5f7fff0000000000000000000000000000000000000000000000000000000000000082169050919050565b5f819050919050565b610eeb610ee682610ea6565b610ed1565b82525050565b5f819050919050565b610f0b610f06826108dd565b610ef1565b82525050565b5f610f1c8286610eda565b600182019150610f2c8285610efa565b602082019150610f3c8284610efa565b602082019150819050949350505050565b5f81519050919050565b8281835e5f83830152505050565b5f610f6f82610f4d565b610f798185610dfd565b9350610f89818560208601610f57565b80840191505092915050565b5f610fa08284610f65565b915081905092915050565b5f81519050610fb981610a3b565b92915050565b5f60208284031215610fd457610fd36109d2565b5b5f610fe184828501610fab565b9150509291505056fea264697066735822122023ac918f98f04e2c784a4e6cd8aa966b3285d8f67e349e8ba2d3e6816420be1764736f6c634300081e0033","linkReferences":{}},"methodIdentifiers":{"denomination()":"8bca6d16","deposit(bytes32)":"b214faa5","hashChainRoot()":"4ebd55e7","ivcVerifier()":"a5865927","nextIndex()":"fc7e9c6f","nullified(bytes32)":"e73bdb5e","setCheckpoint(bytes,bytes32,bytes32)":"9a11a8d0","validCheckpoint(bytes32)":"f79ff103","withdraw(bytes,bytes32,bytes32,address)":"b130eaa6","withdrawVerifier()":"864eb164"},"id":0}