{"abi":[{"type":"constructor","inputs":[{"name":"_denomination","type":"uint256","internalType":"uint256"},{"name":"_ivcVerifier","type":"address","internalType":"address"},{"name":"_withdrawVerifier","type":"address","internalType":"address"}],"stateMutability":"nonpayable"},{"type":"function","name":"denomination","inputs":[],"outputs":[{"name":"","type":"uint256","internalType":"uint256"}],"stateMutability":"view"},{"type":"function","name":"deposit","inputs":[{"name":"commitment","type":"bytes32","internalType":"bytes32"}],"outputs":[],"stateMutability":"payable"},{"type":"function","name":"hashChainRoot","inputs":[],"outputs":[{"name":"","type":"bytes32","internalType":"bytes32"}],"stateMutability":"view"},{"type":"function","name":"ivcVerifier","inputs":[],"outputs":[{"name":"","type":"address","internalType":"contract IIVCVerifier"}],"stateMutability":"view"},{"type":"function","name":"nextIndex","inputs":[],"outputs":[{"name":"","type":"uint256","internalType":"uint256"}],"stateMutability":"view"},{"type":"function","name":"nullified","inputs":[{"name":"","type":"bytes32","internalType":"bytes32"}],"outputs":[{"name":"","type":"bool","internalType":"bool"}],"stateMutability":"view"},{"type":"function","name":"setCheckpoint","inputs":[{"name":"proofIVC","type":"bytes","internalType":"bytes"},{"name":"hashChainRoot_","type":"bytes32","internalType":"bytes32"},{"name":"virtualMerkleRoot","type":"bytes32","internalType":"bytes32"}],"outputs":[],"stateMutability":"nonpayable"},{"type":"function","name":"validCheckpoint","inputs":[{"name":"","type":"bytes32","internalType":"bytes32"}],"outputs":[{"name":"","type":"bool","internalType":"bool"}],"stateMutability":"view"},{"type":"function","name":"withdraw","inputs":[{"name":"proof_W","type":"bytes","internalType":"bytes"},{"name":"nullifierHash","type":"bytes32","internalType":"bytes32"},{"name":"virtualMerkleRoot","type":"bytes32","internalType":"bytes32"},{"name":"recipientF","type":"bytes32","internalType":"bytes32"}],"outputs":[],"stateMutability":"nonpayable"},{"type":"function","name":"withdrawVerifier","inputs":[],"outputs":[{"name":"","type":"address","internalType":"contract IWithdrawVerifier"}],"stateMutability":"view"},{"type":"event","name":"Checkpoint","inputs":[{"name":"hashChainRoot","type":"bytes32","indexed":true,"internalType":"bytes32"},{"name":"virtualMerkleRoot","type":"bytes32","indexed":true,"internalType":"bytes32"}],"anonymous":false},{"type":"event","name":"Deposit","inputs":[{"name":"commitment","type":"bytes32","indexed":true,"internalType":"bytes32"},{"name":"index","type":"uint256","indexed":false,"internalType":"uint256"}],"anonymous":false},{"type":"event","name":"Withdraw","inputs":[{"name":"nullifierHash","type":"bytes32","indexed":true,"internalType":"bytes32"},{"name":"to","type":"address","indexed":true,"internalType":"address"}],"anonymous":false},{"type":"error","name":"InvalidCommitment","inputs":[]},{"type":"error","name":"InvalidProof","inputs":[]},{"type":"error","name":"InvalidValue","inputs":[]},{"type":"error","name":"NullifierUsed","inputs":[]},{"type":"error","name":"StaleOld","inputs":[]},{"type":"error","name":"UnknownCheckpoint","inputs":[]}],"bytecode":{"object":"0x60e0604052600160045534801562000015575f80fd5b50604051620015383803806200153883398181016040528101906200003b9190620001fc565b5f73ffffffffffffffffffffffffffffffffffffffff168273ffffffffffffffffffffffffffffffffffffffff1614158015620000a457505f73ffffffffffffffffffffffffffffffffffffffff168173ffffffffffffffffffffffffffffffffffffffff1614155b620000e6576040517f08c379a0000000000000000000000000000000000000000000000000000000008152600401620000dd90620002b3565b60405180910390fd5b82608081815250508173ffffffffffffffffffffffffffffffffffffffff1660a08173ffffffffffffffffffffffffffffffffffffffff16815250508073ffffffffffffffffffffffffffffffffffffffff1660c08173ffffffffffffffffffffffffffffffffffffffff1681525050505050620002d3565b5f80fd5b5f819050919050565b620001778162000163565b811462000182575f80fd5b50565b5f8151905062000195816200016c565b92915050565b5f73ffffffffffffffffffffffffffffffffffffffff82169050919050565b5f620001c6826200019b565b9050919050565b620001d881620001ba565b8114620001e3575f80fd5b50565b5f81519050620001f681620001cd565b92915050565b5f805f606084860312156200021657620002156200015f565b5b5f620002258682870162000185565b93505060206200023886828701620001e6565b92505060406200024b86828701620001e6565b9150509250925092565b5f82825260208201905092915050565b7f4241445f564552494649455200000000000000000000000000000000000000005f82015250565b5f6200029b600c8362000255565b9150620002a88262000265565b602082019050919050565b5f6020820190508181035f830152620002cc816200028d565b9050919050565b60805160a05160c05161121e6200031a5f395f8181610343015261056e01525f81816105f1015261072701525f8181610463015281816105920152610786015261121e5ff3fe608060405260043610610090575f3560e01c8063a586592711610058578063a586592714610162578063b214faa51461018c578063e73bdb5e146101a8578063f79ff103146101e4578063fc7e9c6f1461022057610090565b806348d53102146100945780634ebd55e7146100bc578063864eb164146100e65780638bca6d16146101105780639a11a8d01461013a575b5f80fd5b34801561009f575f80fd5b506100ba60048036038101906100b59190610ae3565b61024a565b005b3480156100c7575f80fd5b506100d0610567565b6040516100dd9190610b76565b60405180910390f35b3480156100f1575f80fd5b506100fa61056c565b6040516101079190610c09565b60405180910390f35b34801561011b575f80fd5b50610124610590565b6040516101319190610c3a565b60405180910390f35b348015610145575f80fd5b50610160600480360381019061015b9190610c53565b6105b4565b005b34801561016d575f80fd5b50610176610725565b6040516101839190610ce4565b60405180910390f35b6101a660048036038101906101a19190610cfd565b610749565b005b3480156101b3575f80fd5b506101ce60048036038101906101c99190610cfd565b6108f3565b6040516101db9190610d42565b60405180910390f35b3480156101ef575f80fd5b5061020a60048036038101906102059190610cfd565b610910565b6040516102179190610d42565b60405180910390f35b34801561022b575f80fd5b5061023461092d565b6040516102419190610c3a565b60405180910390f35b60026004540361028f576040517f08c379a000000000000000000000000000000000000000000000000000000000815260040161028690610db5565b60405180910390fd5b600260048190555060015f8381526020019081526020015f205f9054906101000a900460ff166102eb576040517f8f21ef3400000000000000000000000000000000000000000000000000000000815260040160405180910390fd5b60025f8481526020019081526020015f205f9054906101000a900460ff1615610340576040517f9281498500000000000000000000000000000000000000000000000000000000815260040160405180910390fd5b5f7f000000000000000000000000000000000000000000000000000000000000000073ffffffffffffffffffffffffffffffffffffffff16636efef00987878688876040518663ffffffff1660e01b81526004016103a2959493929190610e2d565b602060405180830381865afa1580156103bd573d5f803e3d5ffd5b505050506040513d601f19601f820116820180604052508101906103e19190610ea3565b90508061041a576040517f09bde33900000000000000000000000000000000000000000000000000000000815260040160405180910390fd5b600160025f8681526020019081526020015f205f6101000a81548160ff0219169083151502179055505f825f1c90505f8173ffffffffffffffffffffffffffffffffffffffff167f000000000000000000000000000000000000000000000000000000000000000060405161048e90610efb565b5f6040518083038185875af1925050503d805f81146104c8576040519150601f19603f3d011682016040523d82523d5f602084013e6104cd565b606091505b5050905080610511576040517f08c379a000000000000000000000000000000000000000000000000000000000815260040161050890610f59565b60405180910390fd5b8173ffffffffffffffffffffffffffffffffffffffff16867f0448f4c3f7e202963aee589c062ccd162bcad2d1e20f233e7092cf77dacc61df60405160405180910390a350505060016004819055505050505050565b5f5481565b7f000000000000000000000000000000000000000000000000000000000000000081565b7f000000000000000000000000000000000000000000000000000000000000000081565b815f54146105ee576040517fb909e30700000000000000000000000000000000000000000000000000000000815260040160405180910390fd5b5f7f000000000000000000000000000000000000000000000000000000000000000073ffffffffffffffffffffffffffffffffffffffff1663ab750e7586865f54866040518563ffffffff1660e01b815260040161064f9493929190610f77565b602060405180830381865afa15801561066a573d5f803e3d5ffd5b505050506040513d601f19601f8201168201806040525081019061068e9190610ea3565b9050806106c7576040517f09bde33900000000000000000000000000000000000000000000000000000000815260040160405180910390fd5b6001805f8481526020019081526020015f205f6101000a81548160ff021916908315150217905550815f547fb481e80a283d84185d8dd60c1e092608445351b4e26af530b2910ef8ae8915f060405160405180910390a35050505050565b7f000000000000000000000000000000000000000000000000000000000000000081565b5f801b8103610784576040517fc06789fa00000000000000000000000000000000000000000000000000000000815260040160405180910390fd5b7f000000000000000000000000000000000000000000000000000000000000000034146107dd576040517faa7feadc00000000000000000000000000000000000000000000000000000000815260040160405180910390fd5b5f6003549050600181016003819055505f604067ffffffffffffffff81111561080957610808610fb5565b5b6040519080825280601f01601f19166020018201604052801561083b5781602001600182028036833780820191505090505b50905061084a815f8054610933565b61085681602085610933565b5f6002826040516108679190611044565b602060405180830381855afa158015610882573d5f803e3d5ffd5b5050506040513d601f19601f820116820180604052508101906108a5919061106e565b90506108b0816109bd565b5f81905550837f98e783c3864bbf744a057ef605a2a61701c3b62b5ed68b3745b99094497daf1f846040516108e59190610c3a565b60405180910390a250505050565b6002602052805f5260405f205f915054906101000a900460ff1681565b6001602052805f5260405f205f915054906101000a900460ff1681565b60035481565b5f815f1c90505f5b60208110156109b65780600861095191906110c6565b82901c60f81b8582866109649190611107565b815181106109755761097461113a565b5b60200101907effffffffffffffffffffffffffffffffffffffffffffffffffffffffffffff191690815f1a90535080806109ae90611167565b91505061093b565b5050505050565b5f80826040516020016109d091906111ce565b60405160208183030381529060405290505f805f90505b601f811015610a3a578060086109fd91906110c6565b838281518110610a1057610a0f61113a565b5b602001015160f81c60f81b60f81c60ff16901b821791508080610a3290611167565b9150506109e7565b50805f1b92505050919050565b5f80fd5b5f80fd5b5f80fd5b5f80fd5b5f80fd5b5f8083601f840112610a7057610a6f610a4f565b5b8235905067ffffffffffffffff811115610a8d57610a8c610a53565b5b602083019150836001820283011115610aa957610aa8610a57565b5b9250929050565b5f819050919050565b610ac281610ab0565b8114610acc575f80fd5b50565b5f81359050610add81610ab9565b92915050565b5f805f805f60808688031215610afc57610afb610a47565b5b5f86013567ffffffffffffffff811115610b1957610b18610a4b565b5b610b2588828901610a5b565b95509550506020610b3888828901610acf565b9350506040610b4988828901610acf565b9250506060610b5a88828901610acf565b9150509295509295909350565b610b7081610ab0565b82525050565b5f602082019050610b895f830184610b67565b92915050565b5f73ffffffffffffffffffffffffffffffffffffffff82169050919050565b5f819050919050565b5f610bd1610bcc610bc784610b8f565b610bae565b610b8f565b9050919050565b5f610be282610bb7565b9050919050565b5f610bf382610bd8565b9050919050565b610c0381610be9565b82525050565b5f602082019050610c1c5f830184610bfa565b92915050565b5f819050919050565b610c3481610c22565b82525050565b5f602082019050610c4d5f830184610c2b565b92915050565b5f805f8060608587031215610c6b57610c6a610a47565b5b5f85013567ffffffffffffffff811115610c8857610c87610a4b565b5b610c9487828801610a5b565b94509450506020610ca787828801610acf565b9250506040610cb887828801610acf565b91505092959194509250565b5f610cce82610bd8565b9050919050565b610cde81610cc4565b82525050565b5f602082019050610cf75f830184610cd5565b92915050565b5f60208284031215610d1257610d11610a47565b5b5f610d1f84828501610acf565b91505092915050565b5f8115159050919050565b610d3c81610d28565b82525050565b5f602082019050610d555f830184610d33565b92915050565b5f82825260208201905092915050565b7f5245454e5452414e4359000000000000000000000000000000000000000000005f82015250565b5f610d9f600a83610d5b565b9150610daa82610d6b565b602082019050919050565b5f6020820190508181035f830152610dcc81610d93565b9050919050565b5f82825260208201905092915050565b828183375f83830152505050565b5f601f19601f8301169050919050565b5f610e0c8385610dd3565b9350610e19838584610de3565b610e2283610df1565b840190509392505050565b5f6080820190508181035f830152610e46818789610e01565b9050610e556020830186610b67565b610e626040830185610b67565b610e6f6060830184610b67565b9695505050505050565b610e8281610d28565b8114610e8c575f80fd5b50565b5f81519050610e9d81610e79565b92915050565b5f60208284031215610eb857610eb7610a47565b5b5f610ec584828501610e8f565b91505092915050565b5f81905092915050565b50565b5f610ee65f83610ece565b9150610ef182610ed8565b5f82019050919050565b5f610f0582610edb565b9150819050919050565b7f5452414e534645525f4641494c000000000000000000000000000000000000005f82015250565b5f610f43600d83610d5b565b9150610f4e82610f0f565b602082019050919050565b5f6020820190508181035f830152610f7081610f37565b9050919050565b5f6060820190508181035f830152610f90818688610e01565b9050610f9f6020830185610b67565b610fac6040830184610b67565b95945050505050565b7f4e487b71000000000000000000000000000000000000000000000000000000005f52604160045260245ffd5b5f81519050919050565b5f5b83811015611009578082015181840152602081019050610fee565b5f8484015250505050565b5f61101e82610fe2565b6110288185610ece565b9350611038818560208601610fec565b80840191505092915050565b5f61104f8284611014565b915081905092915050565b5f8151905061106881610ab9565b92915050565b5f6020828403121561108357611082610a47565b5b5f6110908482850161105a565b91505092915050565b7f4e487b71000000000000000000000000000000000000000000000000000000005f52601160045260245ffd5b5f6110d082610c22565b91506110db83610c22565b92508282026110e981610c22565b91508282048414831517611100576110ff611099565b5b5092915050565b5f61111182610c22565b915061111c83610c22565b925082820190508082111561113457611133611099565b5b92915050565b7f4e487b71000000000000000000000000000000000000000000000000000000005f52603260045260245ffd5b5f61117182610c22565b91507fffffffffffffffffffffffffffffffffffffffffffffffffffffffffffffffff82036111a3576111a2611099565b5b600182019050919050565b5f819050919050565b6111c86111c382610ab0565b6111ae565b82525050565b5f6111d982846111b7565b6020820191508190509291505056fea2646970667358221220921e8ed496b5a3aa4c0bcc4b97e6fefce9aacfc7218f77313d88cbf37a596cb764736f6c63430008140033","linkReferences":{}},"methodIdentifiers":{"denomination()":"8bca6d16","deposit(bytes32)":"b214faa5","hashChainRoot()":"4ebd55e7","ivcVerifier()":"a5865927","nextIndex()":"fc7e9c6f","nullified(bytes32)":"e73bdb5e","setCheckpoint(bytes,bytes32,bytes32)":"9a11a8d0","validCheckpoint(bytes32)":"f79ff103","withdraw(bytes,bytes32,bytes32,bytes32)":"48d53102","withdrawVerifier()":"864eb164"},"id":25}